:100000000C942A000C9447000C9447000C94470071
:100010000C9447000C9447000C9447000C94470044
:100020000C9447000C9447000C9447000C94470034
:100030000C9447000C9474110C9417070C948306CD
:100040000C9447000C9447000C9447000C94470014
:100050000C94470011241FBECFE5D8E0DEBFCDBF12
:1000600010E0A0E6B0E0ECEBFAE202C005900D92E1
:10007000A637B107D9F710E0A6E7B0E001C01D929E
:10008000A83AB107E1F70E94A8110C945C150C94F2
:100090000000EF92FF920F931F937B018C0120E0F1
:1000A00030E040E05FE40E94F50388238CF0C80153
:1000B000B70120E030E040E05FE40E94C1010E940F
:1000C00055049B01AC01205030404040504806C0D0
:1000D000C801B7010E9455049B01AC01B901CA01D6
:1000E0001F910F91FF90EF900895A0E0B0E0EBE733
:1000F000F0E00C94F511DC012B01FA019C91923097
:1001000008F439C1EB018881823008F433C194309E
:1001100069F4843009F02FC111969C91119789815F
:10012000981709F428C1ADE6B0E025C1843009F480
:1001300021C18230A9F4923009F01DC19A01AD01AC
:1001400088E0EA010990AE01E90109929E0181501F
:10015000C1F7E201898111969C918923818308C1AD
:10016000923009F407C112962D903C901397EB0141
:100170008A819B811496AD90BD90CD90DC901797AD
:10018000EC80FD800E811F819101281B390BB90184
:1001900037FF04C066277727621B730B6032710537
:1001A0000CF061C0121613066CF537014801062EDB
:1001B00004C096948794779467940A94D2F721E0C8
:1001C00030E040E050E004C0220F331F441F551FB1
:1001D0006A95D2F721503040404050402E213F21B7
:1001E00040235123211531054105510521F021E01E
:1001F00030E040E050E079018A01E628F72808293C
:1002000019293CC0232BD1F1260E371E350146019A
:10021000062E04C096948794779467940A94D2F734
:1002200021E030E040E050E004C0220F331F441FC3
:10023000551F6A95D2F721503040404050402A2146
:100240003B214C215D21211531054105510521F04E
:1002500021E030E040E050E059016A01A628B728CB
:10026000C828D9280BC0821593052CF01C01AA249C
:10027000BB24650103C0EE24FF24870111969C91E5
:10028000D20111968C91981709F445C0992339F041
:10029000A80197012A193B094C095D0906C0A6016E
:1002A00095012E193F09400B510B57FD08C01182D3
:1002B0003382228224833583468357831DC081E0A5
:1002C00081833382228288279927DC01821B930B4A
:1002D000A40BB50B84839583A683B7830DC0220F2F
:1002E000331F441F551F24833583468357838281E0
:1002F000938101979383828324813581468157813D
:10030000DA01C9010197A109B1098F5F9F4FAF4F72
:10031000BF4328F30BC0918333822282EA0CFB1C7B
:100320000C1D1D1DE482F5820683178383E0808304
:10033000248135814681578157FF1AC0C901AA27F8
:1003400097FDA095BA2F81709070A070B0705695EF
:10035000479537952795822B932BA42BB52B848318
:100360009583A683B7838281938101969383828349
:10037000DF0101C0D201CD01CDB7DEB7E2E10C94BF
:100380001112A0E2B0E0E7ECF1E00C9401126983F5
:100390007A838B839C832D833E834F835887E9E048
:1003A000EE2EF12CEC0EFD1ECE010196B7010E943F
:1003B0007E058E010F5E1F4FCE010596B8010E948B
:1003C0007E058A8991E089278A8BC701B801AE0131
:1003D000475E5F4F0E9475000E94A904A096E6E068
:1003E0000C941D12A0E2B0E0E8EFF1E00C940112D1
:1003F00069837A838B839C832D833E834F835887C5
:10040000F9E0EF2EF12CEC0EFD1ECE010196B701A6
:100410000E947E058E010F5E1F4FCE010596B8012A
:100420000E947E05C701B801AE01475E5F4F0E9482
:1004300075000E94A904A096E6E00C941D12A0E2AB
:10044000B0E0E5E2F2E00C94F51169837A838B83E6
:100450009C832D833E834F835887CE010196BE0136
:10046000675F7F4F0E947E05CE010596BE016F5EDD
:100470007F4F0E947E059985923088F0898982306D
:10048000C8F0943019F4823051F404C0843029F457
:10049000923081F48DE690E0C6C0923049F420E0BD
:1004A0009A858A89981321E02A87CE010996BBC0D4
:1004B000823049F420E09A858A89981321E02A8BBA
:1004C000CE014196B0C02D843E844F8458886D88FB
:1004D0007E888F88988CEE24FF248701AA24BB2471
:1004E000650140E050E060E070E0E0E0F0E0C10174
:1004F00081709070892BE9F0E60CF71C081D191D1E
:100500009A01AB012A0D3B1D4C1D5D1D80E090E062
:10051000A0E0B0E0E614F7040805190520F481E036
:1005200090E0A0E0B0E0BA01A901480F591F6A1F8E
:100530007B1FAA0CBB1CCC1CDD1C97FE08C081E0F5
:1005400090E0A0E0B0E0A82AB92ACA2ADB2A3196B6
:10055000E032F10549F0660C771C881C991C569412
:10056000479437942794C3CFFA85EA892B893C892D
:100570008B859C85280F391F2E5F3F4F17C0CA01FE
:1005800081709070892B61F016950795F794E79428
:1005900080E090E0A0E0B0E8E82AF92A0A2B1B2BC3
:1005A00076956795579547952F5F3F4F77FDE7CF36
:1005B0000CC0440F551F661F771F17FD4160EE0CDE
:1005C000FF1C001F111F21503040403090E05907A0
:1005D00090E0690790E4790760F32B8F3C8FDB0193
:1005E000CA018F779070A070B07080349105A1051A
:1005F000B10561F447FD0AC0E114F10401051105DC
:1006000029F0405C5F4F6F4F7F4F40781A8EFE1786
:1006100011F081E08A8F4D8F5E8F6F8F78A383E01A
:10062000898FCE0149960E94A904A096E2E10C941C
:100630001112A8E1B0E0EFE1F3E00C94FD11698341
:100640007A838B839C832D833E834F835887B9E0C5
:10065000EB2EF12CEC0EFD1ECE010196B7010E948F
:100660007E058E010F5E1F4FCE010596B8010E94D8
:100670007E052985223008F47EC03989323010F495
:10068000B8017CC08A859A8989278A87243011F02D
:10069000223031F4231709F06EC06DE670E06EC0B1
:1006A000343039F41D861E861F86188A1C861B86E8
:1006B00004C0323021F484E08987B7015FC02B8504
:1006C0003C858B899C89281B390B3C872B87ED84C3
:1006D000FE840F851889AD88BE88CF88D88CEA142F
:1006E000FB040C051D0540F4EE0CFF1C001F111F40
:1006F000215030403C872B8720E030E040E050E044
:1007000080E090E0A0E0B0E460E070E0EA14FB0478
:100710000C051D0540F0282B392B4A2B5B2BEA18C2
:10072000FB080C091D09B695A79597958795EE0CC2
:10073000FF1C001F111F6F5F7F4F6F31710531F775
:10074000DA01C9018F779070A070B0708034910584
:10075000A105B10561F427FD0AC0E114F10401050A
:10076000110529F0205C3F4F4F4F5F4F20782D87B8
:100770003E874F87588BBE01675F7F4FCB010E943A
:10078000A9046896EAE00C941912A8E1B0E0EBEC39
:10079000F3E00C94011269837A838B839C832D830D
:1007A0003E834F83588789E0E82EF12CEC0EFD1E26
:1007B000CE010196B7010E947E058E010F5E1F4F8C
:1007C000CE010596B8010E947E058985823040F0F1
:1007D0008989823028F0C701B8010E94F60501C05E
:1007E0008FEF6896E6E00C941D12A8E1B0E0EBEF05
:1007F000F3E00C94011269837A838B839C832D83AD
:100800003E834F83588789E0E82EF12CEC0EFD1EC5
:10081000CE010196B7010E947E058E010F5E1F4F2B
:10082000CE010596B8010E947E058985823040F090
:100830008989823028F0C701B8010E94F60501C0FD
:100840008FEF6896E6E00C941D12A8E1B0E0EBE2B1
:10085000F4E00C94011269837A838B839C832D834B
:100860003E834F83588789E0E82EF12CEC0EFD1E65
:10087000CE010196B7010E947E058E010F5E1F4FCB
:10088000CE010596B8010E947E058985823040F030
:100890008989823028F0C701B8010E94F60501C09D
:1008A00081E06896E6E00C941D12ACE0B0E0EBE568
:1008B000F4E00C94051269837A838B839C83CE01C8
:1008C0000196BE016B5F7F4F0E947E058D81823055
:1008D00061F1823050F1843021F48E81882351F10E
:1008E0002EC02F81388537FD20C06E812F31310514
:1008F0001CF06623F9F023C08EE190E0821B930B7D
:1009000029853A854B855C8504C056954795379572
:1009100027958A95D2F76623B1F05095409530958A
:1009200021953F4F4F4F5F4F0EC020E030E040E039
:1009300050E009C02FEF3FEF4FEF5FE704C020E02A
:1009400030E040E050E8B901CA012C96E2E00C9496
:100950002112DF92EF92FF920F931F93FC01E4802C
:10096000F58006811781D1808081823048F480E053
:1009700090E0A0E1B0E0E82AF92A0A2B1B2BA5C0E1
:10098000843009F49FC0823021F4EE24FF248701D3
:1009900005C0E114F1040105110519F4E0E0F0E0EF
:1009A00096C0628173819FEF623879070CF05BC05B
:1009B00022E83FEF261B370B2A3131052CF020E0CF
:1009C00030E040E050E02AC0B801A701022E04C088
:1009D00076956795579547950A94D2F781E090E010
:1009E000A0E0B0E004C0880F991FAA1FBB1F2A9582
:1009F000D2F70197A109B1098E219F21A023B1232C
:100A00000097A105B10521F081E090E0A0E0B0E001
:100A10009A01AB01282B392B4A2B5B2BDA01C90138
:100A20008F779070A070B07080349105A105B105EA
:100A300039F427FF09C0205C3F4F4F4F5F4F04C080
:100A4000215C3F4F4F4F5F4FE0E0F0E02030A0E0EF
:100A50003A07A0E04A07A0E45A0710F0E1E0F0E00E
:100A600079018A0127C06038710564F5FB01E158FE
:100A7000FF4FD801C7018F779070A070B07080349D
:100A80009105A105B10539F4E7FE0DC080E490E0C1
:100A9000A0E0B0E004C08FE390E0A0E0B0E0E80E9A
:100AA000F91E0A1F1B1F17FF05C016950795F7941F
:100AB000E794319687E016950795F794E7948A9521
:100AC000D1F705C0EE24FF248701EFEFF0E06E2F91
:100AD000679566276795902F9F77D794DD24D794E5
:100AE0008E2F8695492F462B582F5D29B701CA01B5
:100AF0001F910F91FF90EF90DF900895FC01DB01B3
:100B0000408151812281622F6F7770E0221F22275E
:100B1000221F9381892F880F822B282F30E0991F65
:100B20009927991F11969C93119721153105A9F5C5
:100B3000411551056105710511F482E037C082E865
:100B40009FEF13969C938E9312979A01AB0167E0E7
:100B5000220F331F441F551F6A95D1F783E08C93F2
:100B60000DC0220F331F441F551F12968D919C916B
:100B70001397019713969C938E931297203080E0E1
:100B8000380780E0480780E4580758F314962D93FF
:100B90003D934D935C93179708952F3F310579F45A
:100BA000411551056105710519F484E08C93089590
:100BB00064FF03C081E08C9312C01C9210C02F57B9
:100BC000304013963C932E93129783E08C9387E0EA
:100BD000440F551F661F771F8A95D1F770641496CE
:100BE0004D935D936D937C93179708951F93DC014C
:100BF000FB019C91923008F447C08081823008F458
:100C000043C0943051F411961C91843099F5818140
:100C1000682F70E0611B71093FC0843021F0923071
:100C200031F48230B9F18181882389F12DC0119688
:100C30001C9111978230F1F081811817D9F4129626
:100C40002D913C911397828193818217930794F0A1
:100C500028173907BCF014968D919D910D90BC9189
:100C6000A02D2481358146815781281739074A07ED
:100C70005B0718F4112341F00AC082179307A407F9
:100C8000B50740F4112319F061E070E005C06FEF83
:100C90007FEF02C060E070E0CB011F910895DF9309
:100CA000CF9300D0CDB7DEB79A838983E0E4F0E03C
:100CB00089819A81892F99278083E9E2F0E08981EF
:100CC0008083EAE2F0E088E18083E0E4F0E086E817
:100CD0008083A1E3B0E0E1E3F0E0808184608C9365
:100CE000A2E3B0E0E2E3F0E0808184608C93AAE2CA
:100CF000B0E0EAE2F0E08081886D8C930F900F9075
:100D0000CF91DF9108951F920F920FB60F92112489
:100D10008F93AF93BF93EF93FF93DF93CF93CDB7B1
:100D2000DEB7A2E3B0E0E2E3F0E080818B7F8C935A
:100D3000CF91DF91FF91EF91BF91AF918F910F9084
:100D40000FBE0F901F901895DF93CF9300D0CDB7B3
:100D5000DEB78A83809176008F5F87708983909158
:100D6000770089818917D9F38981882F90E0FC0168
:100D7000E858FF4F8A818083898180937600AAE2B8
:100D8000B0E0EAE2F0E0808180628C930F900F90F7
:100D9000CF91DF910895DF93CF9300D000D0CDB7EE
:100DA000DEB79A83898303C08B810E94A406E98100
:100DB000FA8180818B838B818C838C81882311F0D5
:100DC00081E08C838C8129813A812F5F3F4F3A8368
:100DD0002983882349F70F900F900F900F90CF91A0
:100DE000DF910895DF93CF93CDB7DEB765970FB648
:100DF000F894DEBF0FBECDBF9B8B8A8B7D8B6C8B37
:100E00008A899B894C895D899E012F5F3F4FB9017B
:100E10000E942C12CE0101960E94CB0665960FB659
:100E2000F894DEBF0FBECDBFCF91DF9108951F9222
:100E30000F920FB60F9211248F939F93AF93BF938E
:100E4000EF93FF93DF93CF93CDB7DEB7909176000A
:100E500080917700981791F0809177008F5F87706D
:100E600080937700ACE2B0E080917700882F90E02B
:100E7000FC01E858FF4F80818C9307C0AAE2B0E0E4
:100E8000EAE2F0E080818F7D8C93CF91DF91FF913A
:100E9000EF91BF91AF919F918F910F900FBE0F90E7
:100EA0001F901895DF93CF930F92CDB7DEB7909137
:100EB000800080918100981711F419820FC08091F1
:100EC00081008F5F87708093810080918100882FDF
:100ED00090E0FC01EE57FF4F8081898389810F905C
:100EE000CF91DF910895DF93CF930F92CDB7DEB707
:100EF00085E089838AE366E149810E9471100E943E
:100F0000E3070F90CF91DF910895DF93CF93CDB793
:100F1000DEB72F970FB6F894DEBF0FBECDBF9E0190
:100F20002C5F3F4F8AE366E0A9010E94D510CE01F5
:100F300004969C012F5F3F4F8AE367E0A9010E945E
:100F4000D510CE0104969C012E5F3F4F8AE368E0E6
:100F5000A9010E94D510CE01019698878F83FE01CA
:100F60003496FA87E987F3E0FB87E985FA85008004
:100F700089859A8501969A878987EF81F88500820D
:100F80008F819885019698878F839B8591509B8749
:100F9000EB85EE2351F720E0298180E08A8190E003
:100FA0009B812C878D879E878C859D85AE85BF858F
:100FB000BC01CD012F960FB6F894DEBF0FBECDBF9A
:100FC000CF91DF910895DF93CF93CDB7DEB78AE35A
:100FD00060E14EE40E9471108AE362E146E70E94FC
:100FE00071108AE364E142E10E947110CF91DF91B8
:100FF0000895DF93CF9300D0CDB7DEB79A8389836E
:101000000F900F90CF91DF910895DF93CF930F92C0
:10101000CDB7DEB789830E944008ABE3B0E0EBE3D5
:10102000F0E080818D7F8C93ABE3B0E0EBE3F0E008
:10103000808184608C93898182958F700E9463087F
:10104000ABE3B0E0EBE3F0E080818B7F8C93ABE32C
:10105000B0E0EBE3F0E0808184608C9389810E94B2
:101060006308ABE3B0E0EBE3F0E080818B7F8C932F
:101070000E945E098823E4F30F90CF91DF910895D9
:10108000DF93CF93CDB7DEB7AAE3B0E0EAE3F0E0B9
:10109000808180648C93AAE3B0E0EAE3F0E0808191
:1010A00080628C93AAE3B0E0EAE3F0E080818061A3
:1010B0008C93AAE3B0E0EAE3F0E0808188608C934F
:1010C000CF91DF910895DF93CF930F92CDB7DEB725
:1010D00089838981882F90E081709070882341F006
:1010E000ABE3B0E0EBE3F0E0808188608C9307C075
:1010F000ABE3B0E0EBE3F0E08081877F8C93898104
:10110000882F90E082709070009741F0ABE3B0E0E0
:10111000EBE3F0E0808180618C9307C0ABE3B0E04B
:10112000EBE3F0E080818F7E8C938981882F90E0C3
:1011300084709070009741F0ABE3B0E0EBE3F0E037
:10114000808180628C9307C0ABE3B0E0EBE3F0E01A
:1011500080818F7D8C938981882F90E0887090703A
:10116000009741F0ABE3B0E0EBE3F0E08081806416
:101170008C9307C0ABE3B0E0EBE3F0E080818F7BC2
:101180008C930F90CF91DF910895DF93CF930F92BF
:10119000CDB7DEB719820E940009ABE3B0E0EBE304
:1011A000F0E0808182608C93ABE3B0E0EBE3F0E0B1
:1011B000808184608C930E9423098295807F89833B
:1011C000ABE3B0E0EBE3F0E080818B7F8C93ABE3AB
:1011D000B0E0EBE3F0E0808184608C930E9423090F
:1011E000982F8981892B8983ABE3B0E0EBE3F0E0B2
:1011F00080818B7F8C9389810F90CF91DF910895AF
:10120000DF93CF93CDB7DEB7AAE3B0E0EAE3F0E037
:1012100080818F7B8C93AAE3B0E0EAE3F0E08081E9
:101220008F7D8C93AAE3B0E0EAE3F0E080818F7ECB
:101230008C93AAE3B0E0EAE3F0E08081877F8C93AF
:10124000CF91DF910895DF93CF930F92CDB7DEB7A3
:101250001982E9E3F0E08081882F90E08870907037
:10126000009719F0898181608983E9E3F0E080814A
:10127000882F90E080719070009719F089818260CA
:101280008983E9E3F0E08081882F90E0807290709C
:10129000009719F0898184608983E9E3F0E0808117
:1012A000882F90E080749070009719F08981886091
:1012B000898389810F90CF91DF910895DF93CF9338
:1012C000CDB7DEB7ABE3B0E0EBE3F0E080818E7F3B
:1012D0008C930E94C508CF91DF910895DF93CF933F
:1012E0000F92CDB7DEB78983ABE3B0E0EBE3F0E07C
:1012F00080818E7F8C9389810E9405080F90CF9109
:10130000DF910895DF93CF930F92CDB7DEB7898336
:10131000ABE3B0E0EBE3F0E0808181608C93898106
:101320000E9405080F90CF91DF910895DF93CF932E
:1013300000D0CDB7DEB789838981882344F48981C1
:10134000883828F48981982F97709A8302C0898100
:101350008A838A810E9482090F900F90CF91DF913A
:101360000895DF93CF9300D000D0CDB7DEB79A8336
:10137000898303C08B810E949609E981FA8180816B
:101380008B838B818C838C81882311F081E08C830B
:101390008C8129813A812F5F3F4F3A8329838823AB
:1013A00049F70F900F900F900F90CF91DF91089514
:1013B000DF93CF9300D000D000D0CDB7DEB79D83B0
:1013C0008C8303C08E810E9496098C819D819B83B2
:1013D0008A838C819D8101969D838C83EA81FB8128
:1013E0008491898389818E838E81882359F72696FB
:1013F0000FB6F894DEBF0FBECDBFCF91DF91089539
:10140000DF93CF9300D00F92CDB7DEB79A83898355
:1014100089819A8129813A812F5F3F4F3A832983BD
:101420000E9482148B838B81882339F08B818F3FBC
:1014300021F08B810E949609EBCF0F900F900F90B7
:10144000CF91DF910895DF93CF93CDB7DEB7639748
:101450000FB6F894DEBF0FBECDBF9B8B8A8B8A89F7
:101460009B899E012F5F3F4FB9014AE050E00E94E7
:101470002C120E94B10963960FB6F894DEBF0FBE1E
:10148000CDBFCF91DF910895DF93CF93CDB7DEB776
:1014900065970FB6F894DEBF0FBECDBF6A8B7B8B0E
:1014A0008C8B9D8B8A899B89AC89BD89BC01CD01C0
:1014B0009E012F5F3F4FA90120E130E00E944D12B5
:1014C0000E94B10965960FB6F894DEBF0FBECDBF7E
:1014D000CF91DF910895DF93CF9300D000D0CDB7A7
:1014E000DEB789837B836A838981882F90E0877048
:1014F00090700896880F991F880F991F880F991F61
:101500000E946E091C820EC0EA81FB8120818A81C3
:101510009B8101969B838A83822F0E9482098C8102
:101520008F5F8C838C81883078F30F900F900F90B1
:101530000F90CF91DF910895DF93CF93CDB7DEB7B2
:1015400027970FB6F894DEBF0FBECDBF8C837E8386
:101550006D838C81882F90E0877090700896880F3B
:10156000991F880F991F880F991F0E946E091F826B
:1015700013C08D819E819B838A838D819E8101967C
:101580009E838D83EA81FB818491898389810E9476
:1015900082098F818F5F8F838F81883050F32796E8
:1015A0000FB6F894DEBF0FBECDBFCF91DF91089587
:1015B000DF93CF9300D000D0CDB7DEB789837B8394
:1015C0006A838981882F90E0877090700896880FD1
:1015D000991F880F991F880F991F0E946E091C82FE
:1015E0000FC02A813B818A819B8101969B838A83DC
:1015F000C9010E9482140E9482098C818F5F8C83B2
:101600008C81883070F30F900F900F900F90CF91D6
:10161000DF910895DF93CF9300D000D0CDB7DEB730
:1016200089836A838981282F30E03C832B838B81D7
:101630009C81009731F02B813C812130310519F0DC
:1016400004C0198202C080E4898399818A81890F4C
:1016500080580E946E090F900F900F900F90CF91BD
:10166000DF910895DF93CF93CDB7DEB781E00E947D
:101670006E09CF91DF9108950F931F93DF93CF935E
:10168000CDB7DEB7C456D0400FB6F894DEBF0FBE5C
:10169000CDBF0E944008AAE3B0E0EAE3F0E0808119
:1016A00081608C93AAE3B0E0EAE3F0E0808184609B
:1016B0008C93AAE3B0E0EAE3F0E0808182608C934F
:1016C000ABE3B0E0EBE3F0E0808181608C93ABE3CF
:1016D000B0E0EBE3F0E0808184608C93ABE3B0E0BA
:1016E000EBE3F0E0808182608C93FE01EF59FF4FC5
:1016F00080E090E0A0E7B1E480839183A283B3838C
:101700008E01035A1F4FFE01EF59FF4F6081718117
:101710008281938120E030E04AEF54E40E941F026E
:10172000DC01CB01F80180839183A283B383FE01A6
:10173000E35AFF4F608171818281938120E030E024
:1017400040E85FE30E942504882344F4FE01E55A43
:10175000FF4F81E090E09183808364C0FE01E35AF3
:10176000FF4F608171818281938120E03FEF4FE7DD
:1017700057E40E94C50318160CF043C0FE01EF5950
:10178000FF4F608171818281938120E030E040E2EF
:1017900051E40E941F02DC01CB018E01055A1F4F4C
:1017A000BC01CD010E944900DC01CB01F80191830D
:1017B00080831FC0FE01E75AFF4F88EC90E09183C1
:1017C0008083FE01E75AFF4F808191810197F1F7F5
:1017D000FE01E75AFF4F91838083DE01A55ABF4F78
:1017E000FE01E55AFF4F80819181019711969C93EC
:1017F0008E93FE01E55AFF4F808191810097D1F6CB
:1018000027C08E01055A1F4FFE01E35AFF4F60812A
:101810007181828193810E944900DC01CB01F80132
:1018200091838083DE01A95ABF4FFE01E55AFF4F25
:10183000808191818D939C93FE01E95AFF4F8081B5
:1018400091810197F1F7FE01E95AFF4F918380835F
:10185000ABE3B0E0EBE3F0E080818B7F8C93ABE314
:10186000B0E0EBE3F0E080818E7F8C93ABE3B0E0FF
:10187000EBE3F0E080818D7F8C93ABE3B0E0EBE3B2
:10188000F0E0808184608C9383E00E946308ABE386
:10189000B0E0EBE3F0E080818B7F8C93FE01ED5AAA
:1018A000FF4F83E393E3A3E8B0E480839183A283B3
:1018B000B3838E01015B1F4FFE01ED5AFF4F608124
:1018C00071818281938120E030E04AEF54E40E94EC
:1018D0001F02DC01CB01F80180839183A283B383D3
:1018E000FE01E15BFF4F608171818281938120E085
:1018F00030E040E85FE30E942504882344F4FE01C1
:10190000E35BFF4F81E090E09183808364C0FE0140
:10191000E15BFF4F608171818281938120E03FEF25
:101920004FE757E40E94C50318160CF043C0FE01B0
:10193000ED5AFF4F608171818281938120E030E018
:1019400040E251E40E941F02DC01CB018E01035BE7
:101950001F4FBC01CD010E944900DC01CB01F80101
:10196000918380831FC0FE01E55BFF4F88EC90E010
:1019700091838083FE01E55BFF4F80819181019718
:10198000F1F7FE01E55BFF4F91838083DE01A35BEE
:10199000BF4FFE01E35BFF4F80819181019711965C
:1019A0009C938E93FE01E35BFF4F808191810097B2
:1019B000D1F627C08E01035B1F4FFE01E15BFF4F95
:1019C00060817181828193810E944900DC01CB0199
:1019D000F80191838083DE01A75BBF4FFE01E35BCB
:1019E000FF4F808191818D939C93FE01E75BFF4FB8
:1019F000808191810197F1F7FE01E75BFF4F9183B1
:101A00008083ABE3B0E0EBE3F0E0808184608C9313
:101A100083E00E946308ABE3B0E0EBE3F0E0808199
:101A20008B7F8C93FE01EB5BFF4F80E090E0A8EC96
:101A3000B2E480839183A283B3838E010F5B1F4F37
:101A4000FE01EB5BFF4F60817181828193812BEA04
:101A50003AEA4AE250E40E941F02DC01CB01F8019D
:101A600080839183A283B383FE01EF5BFF4F60818C
:101A700071818281938120E030E040E85FE30E9441
:101A80002504882334F481E0FE01E05CFF4F80836D
:101A90009DC0FE01EF5BFF4F608171818281938168
:101AA00020E030E04FE753E40E94C50318160CF025
:101AB0007EC0FE01EB5BFF4F60817181828193816B
:101AC00020E030E04AE754E40E941903DC01CB0136
:101AD0008CAF9DAFAEAFBFAF6CAD7DAD8EAD9FADEA
:101AE00020E030E04AEF54E40E941F02DC01CB0109
:101AF00088AF99AFAAAFBBAF68AD79AD8AAD9BADEA
:101B000020E030E040E85FE30E94250488232CF4C5
:101B100081E090E09FAB8EAB3FC068AD79AD8AAD00
:101B20009BAD20E03FEF4FE757E40E94C503181636
:101B30004CF56CAD7DAD8EAD9FAD20E030E040E268
:101B400051E40E941F02DC01CB01BC01CD010E94C7
:101B50004900DC01CB019FAB8EAB0FC088EC90E05D
:101B60009DAB8CAB8CA99DA90197F1F79DAB8CAB7C
:101B70008EA99FA901979FAB8EAB8EA99FA90097B5
:101B800069F72DC068AD79AD8AAD9BAD0E94490063
:101B9000DC01CB019FAB8EAB8EA99FA99BAB8AAB1F
:101BA0008AA99BA90197F1F79BAB8AAB18C0FE01EC
:101BB000EF5BFF4F60817181828193810E944900B8
:101BC000DC01CB01FE01E05CFF4F8083FE01E05CA5
:101BD000FF4F808189AB89A98A95F1F789ABABE387
:101BE000B0E0EBE3F0E0808184608C9383E00E94BE
:101BF0006308ABE3B0E0EBE3F0E080818B7F8C9394
:101C000080E090E0A8ECB2E48DA79EA7AFA7B8ABA8
:101C10006DA57EA58FA598A92BEA3AEA4AE250E481
:101C20000E941F02DC01CB0189A79AA7ABA7BCA722
:101C300069A57AA58BA59CA520E030E040E85FE38C
:101C40000E94250488231CF481E088A791C069A51F
:101C50007AA58BA59CA520E030E04FE753E40E94D5
:101C6000C50318160CF07BC06DA57EA58FA598A99D
:101C700020E030E04AE754E40E941903DC01CB0184
:101C80008CA39DA3AEA3BFA36CA17DA18EA19FA198
:101C900020E030E04AEF54E40E941F02DC01CB0157
:101CA00088A399A3AAA3BBA368A179A18AA19BA198
:101CB00020E030E040E85FE30E94250488232CF414
:101CC00081E090E09F8F8E8F3FC068A179A18AA1AB
:101CD0009BA120E03FEF4FE757E40E94C503181691
:101CE0004CF56CA17DA18EA19FA120E030E040E2E7
:101CF00051E40E941F02DC01CB01BC01CD010E9416
:101D00004900DC01CB019F8F8E8F0FC088EC90E0E3
:101D10009D8F8C8F8C8D9D8D0197F1F79D8F8C8F72
:101D20008E8D9F8D01979F8F8E8F8E8D9F8D0097AB
:101D300069F724C068A179A18AA19BA10E944900EA
:101D4000DC01CB019F8F8E8F8E8D9F8D9B8F8A8F15
:101D50008A8D9B8D0197F1F79B8F8A8F0FC069A5A4
:101D60007AA58BA59CA50E944900DC01CB0188A720
:101D700088A5898F898D8A95F1F7898FABE3B0E0CB
:101D8000EBE3F0E0808184608C9382E00E94630842
:101D9000ABE3B0E0EBE3F0E080818B7F8C9380E0FD
:101DA00090E0A8ECB2E48D8B9E8BAF8BB88F6D89E1
:101DB0007E898F89988D2BEA3AEA4AE250E40E94A4
:101DC0001F02DC01CB01898B9A8BAB8BBC8B6989A1
:101DD0007A898B899C8920E030E040E85FE30E94AB
:101DE000250488231CF481E0888B91C069897A8955
:101DF0008B899C8920E030E04FE753E40E94C503C3
:101E000018160CF07BC06D897E898F89988D20E033
:101E100030E04AE754E40E941903DC01CB018C87CF
:101E20009D87AE87BF876C857D858E859F8520E0E9
:101E300030E04AEF54E40E941F02DC01CB018887A6
:101E40009987AA87BB87688579858A859B8520E0E5
:101E500030E040E85FE30E94250488232CF481E011
:101E600090E09F838E833FC0688579858A859B85B6
:101E700020E03FEF4FE757E40E94C50318164CF5EA
:101E80006C857D858E859F8520E030E040E251E4C1
:101E90000E941F02DC01CB01BC01CD010E94490060
:101EA000DC01CB019F838E830FC088EC90E09D8383
:101EB0008C838C819D810197F1F79D838C838E812A
:101EC0009F8101979F838E838E819F81009769F701
:101ED00024C0688579858A859B850E944900DC013C
:101EE000CB019F838E838E819F819B838A838A818E
:101EF0009B810197F1F79B838A830FC069897A8957
:101F00008B899C890E944900DC01CB01888B8889E0
:101F1000898389818A95F1F7898388E20E946E0915
:101F200088E00E946E098CE00E946E0986E00E94A3
:101F30006E090E94320BCC59DF4F0FB6F894DEBF0A
:101F40000FBECDBFCF91DF911F910F910895DF9309
:101F5000CF9300D000D00F92CDB7DEB79B838A839A
:101F600080E49FE12A813B81B9010E94E111CB010C
:101F7000898389818031A0F08981882F90E0409702
:101F80009D838C838C819D8199232CF48C819D81F0
:101F900001969D838C838C819D81959587958983FE
:101FA000E0E2F0E0898180830F900F900F900F9016
:101FB0000F90CF91DF910895DF93CF93CDB7DEB728
:101FC000E6E5F0E084EA8083E6E5F0E080818823BE
:101FD000DCF7CF91DF910895DF93CF93CDB7DEB7D4
:101FE000E6E5F0E084E98083E6E5F0E08081882F93
:101FF00090E0807190700097B9F7CF91DF910895CC
:10200000DF93CF930F92CDB7DEB78983E3E2F0E0A1
:1020100089818083E6E5F0E084E88083E6E5F0E00E
:1020200080818823DCF70F90CF91DF910895DF93B3
:10203000CF930F92CDB7DEB78983E6E5F0E08981D3
:10204000882F90E00024969587950794969587951C
:102050000794982F802D84688083E6E5F0E08081E6
:102060008823DCF7E3E2F0E080810F90CF91DF91ED
:102070000895DF93CF9300D000D000D0CDB7DEB766
:1020800089836A834B833D832C830E94DC0F898183
:102090000E9400108A810E9400100BC0EC81FD811B
:1020A00020818C819D8101969D838C83822F0E944B
:1020B00000108B818E838E81882311F081E08E83C6
:1020C0008E819B8191509B83882341F70E94EC0F66
:1020D00026960FB6F894DEBF0FBECDBFCF91DF912D
:1020E0000895DF93CF9300D00F92CDB7DEB78983E9
:1020F0006A834B830E94DC0F89810E9400108A81D1
:102100000E9400108B810E9400100E94EC0F0F9023
:102110000F900F90CF91DF910895DF93CF93CDB7BC
:10212000DEB727970FB6F894DEBF0FBECDBF898309
:102130006A834B833D832C830E94DC0F89810E943C
:1021400000108A810E9400100E94DC0F89818F5F3D
:102150000E94001012C08B818E838E81882311F023
:1021600081E08E838E810E941710EC81FD81808337
:102170008C819D8101969D838C838B818F838F8140
:10218000882311F081E08F838F819B8191509B8305
:10219000882309F70E94EC0F27960FB6F894DEBF4C
:1021A0000FBECDBFCF91DF910895DF93CF9300D0C5
:1021B00000D000D0CDB7DEB78B836C835E834D83B8
:1021C0000E94DC0F8B810E9400108C810E94001005
:1021D0000E94DC0F8B818F5F0E94001081E090E0F5
:1021E0009A83898381E00E941710ED81FE818083AC
:1021F00080E00E9417100E94EC0F26960FB6F8940C
:10220000DEBF0FBECDBFCF91DF910895DF93CF9397
:10221000CDB7DEB72B970FB6F894DEBF0FBECDBF9C
:102220000E9485076C837D838E83CE0101969887FB
:102230008F83FE013496FA87E987F3E0FB87E9850F
:10224000FA85008089859A8501969A878987EF812A
:10225000F88500828F819885019698878F839B856A
:1022600091509B87EB85EE2351F78981682F772763
:1022700067FD70958A81282F332727FD30958B8144
:10228000482F552747FD50958DB79EB70A970FB633
:10229000F8949EBF0FBE8DBFEDB7FEB731968AE8AA
:1022A00090E09183808380E690E0938382837583BE
:1022B000648337832683518740870E948112EDB75C
:1022C000FEB73A960FB6F894FEBF0FBEEDBF8AE890
:1022D00090E00E94CB062B960FB6F894DEBF0FBE9F
:1022E000CDBFCF91DF9108951F920F920FB60F923D
:1022F00011248F939F93EF93FF93DF93CF9300D09D
:10230000CDB7DEB7ECE2F0E0808189838091800078
:102310008F5F87708A83909181008A81891759F035
:102320008A81809380008A81882F90E0FC01EE579B
:10233000FF4F898180830F900F90CF91DF91FF91A4
:10234000EF919F918F910F900FBE0F901F90189556
:10235000DF93CF930F92CDB7DEB7AAE3B0E0EAE305
:10236000F0E0808180688C93ABE3B0E0EBE3F0E0D9
:10237000808180688C93A4E3B0E0E4E3F0E08081A6
:1023800084608C93A5E3B0E0E5E3F0E080818460B5
:102390008C930E943C0B0E94320B8DE790E00E94D0
:1023A000A70F0E94730783E390E00E944F06789482
:1023B0000E945207898389818D36D1F70E940611C8
:1023C000F7CFAA1BBB1B51E107C0AA1FBB1FA61753
:1023D000B70710F0A61BB70B881F991F5A95A9F7CE
:1023E00080959095BC01CD0108952F923F924F9218
:1023F0005F926F927F928F929F92AF92BF92CF9295
:10240000DF92EF92FF920F931F93CF93DF93CDB79D
:10241000DEB7CA1BDB0B0FB6F894DEBF0FBECDBF15
:1024200009942A88398848885F846E847D848C84E6
:102430009B84AA84B984C884DF80EE80FD800C81EF
:102440001B81AA81B981CE0FD11D0FB6F894DEBFD2
:102450000FBECDBFED010895FB019F01E89442300E
:10246000C4F04532B4F44A3029F497FB1EF4909539
:1024700081959F4F642F77270E94E111805D8A33F9
:102480000CF0895D8193CB010097A1F716F45DE212
:1024900051931082C9010C94A014FA01CF93FF93B9
:1024A000EF93223044F1253234F5C22FE894CA303C
:1024B00049F497FB3EF490958095709561957F4F18
:1024C0008F4F9F4F2C2F332744275527FF93EF9390
:1024D0000E943A15EF91FF91605D6A330CF0695DDF
:1024E0006193B901CA01605070408040904051F73B
:1024F00016F4CDE2C19310828F919F91CF910C94ED
:10250000A014AEE0B0E0E7E8F2E10C9403120D890C
:102510001E8986E08C831A8309838FEF9FE79E8351
:102520008D839E01275E3F4FCE0101966F89788D86
:10253000A9010E94A5122F813885020F131FF801EF
:1025400010822E96E4E00C941F12ABE0B0E0EBEAB0
:10255000F2E10C94F5113C012B015A01FC011782A8
:102560001682838181FD03C06FEF7FEFC6C19AE0C1
:10257000892E1E010894211C311CF3012381F201D4
:1025800023FD859123FF81912F01882309F4B2C196
:10259000853239F423FD859123FF81912F01853206
:1025A00029F490E0B3010E94B014E7CF982FFF24E4
:1025B000EE249924FFE1FF15D0F09B3269F09C32A4
:1025C00028F4903259F0933291F40EC09D3249F0C4
:1025D000903369F441E024C052E0F52A84E0F82AFF
:1025E00028C098E0F92A25C0E0E1FE2A22C0F7FCC5
:1025F00029C0892F80538A3070F4F6FE05C0989C5C
:10260000902C1124980E15C0E89CE02C1124E80EA3
:10261000F0E2FF2A0EC09E3229F4F6FC6BC140E4C2
:10262000F42A07C09C3619F450E8F52A02C09836FF
:1026300049F4F20123FD959123FF91912F019923F4
:1026400009F0B8CF892F8554833018F08052833039
:1026500038F444E050E0A40EB51E5FE359830FC088
:10266000933631F0933779F0933509F056C020C096
:10267000F5018081898342E050E0A40EB51E61011E
:1026800001E010E012C0F501C080D180F6FC03C06B
:102690006FEF7FEF02C0692D70E042E050E0A40EC2
:1026A000B51EC6010E9495148C015FE7F52214C087
:1026B000F501C080D180F6FC03C06FEF7FEF02C050
:1026C000692D70E042E050E0A40EB51EC6010E94E4
:1026D0008A148C0150E8F52AF3FE07C01AC080E284
:1026E00090E0B3010E94B014EA948E2D90E0081798
:1026F0001907A8F30EC0F601F7FC8591F7FE81914A
:102700006F0190E0B3010E94B014E110EA9401500F
:1027100010400115110579F7EAC0943611F0993689
:1027200069F5F7FE08C0F5012081318142815381AE
:1027300084E090E00AC0F501808191819C014427EA
:1027400037FD4095542F82E090E0A80EB91E9FE619
:10275000F92257FF09C050954095309521953F4F7C
:102760004F4F5F4FE0E8FE2ACA01B901A1012AE0FC
:1027700030E00E94DC14D82ED21840C0953729F4DE
:102780001F2D1F7E2AE030E01DC01F2D197F9F36B0
:1027900061F0903720F4983509F0ACC00FC0903745
:1027A00039F0983709F0A6C004C028E030E00AC02C
:1027B000106114FD146020E130E004C014FD1660C7
:1027C00020E132E017FF08C0F5016081718182814C
:1027D000938144E050E008C0F50180819181BC0103
:1027E00080E090E042E050E0A40EB51EA1010E94FE
:1027F000DC14D82ED2188FE7F82EF122F6FE0BC08B
:102800005EEFF522D91438F4F4FE07C0F2FC05C0DF
:102810008FEEF82202C01D2D01C0192DF4FE0DC04F
:10282000FE01ED0DF11D8081803319F499EEF9223E
:1028300008C01F5FF2FE05C003C08F2D867809F027
:102840001F5F0F2DF3FC14C0F0FE0FC01E1510F01B
:102850009D2C0BC09D2C9E0C911A1E2D06C080E253
:1028600090E0B3010E94B0141F5F1E15C0F304C0B6
:102870001E1510F4E11A01C0EE2404FF0FC080E31E
:1028800090E0B3010E94B01402FF1DC001FD03C01F
:1028900088E790E00EC088E590E00BC0802F867836
:1028A00091F001FF02C08BE201C080E2F7FC8DE2F3
:1028B00090E0B3010E94B01406C080E390E0B30141
:1028C0000E94B0149A94D914C0F3DA94F101ED0D7A
:1028D000F11D808190E0B3010E94B014DD20A9F7C2
:1028E00006C080E290E0B3010E94B014EA94EE20AA
:1028F000C1F743CEF30166817781CB012B96E2E1EC
:102900000C941112E199FECF9FBB8EBBE09A9927E0
:102910008DB30895FC010590615070400110D8F707
:10292000809590958E0F9F1F0895FC016150704017
:1029300001900110D8F7809590958E0F9F1F0895F4
:10294000DC01FC01672F71917723E1F7329704C016
:102950007C916D9370836291AE17BF07C8F30895A1
:102960000F931F93CF93DF938C01EB018B8181FF3A
:102970001BC082FF0DC02E813F818C819D81281755
:10298000390764F4E881F9810193F983E88306C08B
:10299000E885F985802F0995892B31F48E819F81F7
:1029A00001969F838E8302C00FEF1FEFC801DF9156
:1029B000CF911F910F910895FA01AA27283051F164
:1029C000203181F1E8946F936E7F6E5F7F4F8F4F60
:1029D0009F4FAF4FB1E03ED0B4E03CD0670F781FBF
:1029E000891F9A1FA11D680F791F8A1F911DA11DA4
:1029F0006A0F711D811D911DA11D20D009F46894DD
:102A00003F912AE0269F11243019305D3193DEF684
:102A1000CF010895462F4770405D4193B3E00FD03A
:102A2000C9F7F6CF462F4F70405D4A3318F0495D25
:102A300031FD4052419302D0A9F7EACFB4E0A69508
:102A40009795879577956795BA95C9F7009761052A
:102A5000710508959B01AC010A2E06945795479580
:102A600037952795BA95C9F7620F731F841F951F75
:102A7000A01D0895A1E21A2EAA1BBB1BFD010DC0CB
:102A8000AA1FBB1FEE1FFF1FA217B307E407F5071E
:102A900020F0A21BB30BE40BF50B661F771F881FFA
:102AA000991F1A9469F760957095809590959B0190
:0C2AB000AC01BD01CF010895F894FFCFE8
:102ABC006220256420256420256420650000000028
:062ACC0000000000000004
:00000001FF
