:100000000C942A000C9447000C9447000C94470071
:100010000C9447000C9447000C9447000C94470044
:100020000C9447000C9447000C9447000C94470034
:100030000C9447000C9409010C94CD000C94A4007E
:100040000C9447000C9447000C9447000C94470014
:100050000C94470011241FBECFE5D8E0DEBFCDBF12
:1000600010E0A0E6B0E0E6E2FFE002C005900D92ED
:10007000A637B107D9F710E0A6E7B0E001C01D929E
:10008000AA3AB107E1F70E949C030C9491070C94E3
:10009000000008958AE360E14EE40E9412038AE3BF
:1000A00062E146E70E9412038AE364E142E10E94B2
:1000B000120308958AE366E145E00E9412030E945C
:1000C0004A0008950F931F93DF93CF9300D000D081
:1000D00000D0CDB7DEB78AE366E08E010F5F1F4F19
:1000E000A8010E946A038AE367E0AE014E5F5F4F9A
:1000F0000E946A038AE368E0AE014D5F5F4F0E9491
:100100006A03DE011496F80183E001900D9281509C
:10011000E1F76C817D818E8190E026960FB6F89490
:10012000DEBF0FBECDBFCF91DF911F910F9108951C
:1001300090BD89B988E18AB986E880BD8A9A929A89
:100140008AB1886D8AB908951F920F920FB60F92E7
:10015000112492980F900FBE0F901F901895282F82
:10016000909176009F5F9F70809177009817E1F3E0
:10017000E92FF0E0E858FF4F208390937600559ADE
:100180000895CF93DF93EC0102C00E94AF008991E4
:100190008823D9F7DF91CF9108951F920F920FB660
:1001A0000F9211248F939F93EF93FF93909176007A
:1001B00080917700981771F0809177008F5F8F7032
:1001C00080937700E0917700F0E0E858FF4F80815E
:1001D0008CB901C05598FF91EF919F918F910F902D
:1001E0000FBE0F901F901895909188008091890004
:1001F000981711F480E00895809189008F5F8F71C6
:1002000080938900E0918900F0E0E657FF4F8081FC
:1002100008951F920F920FB60F9211248F939F9300
:10022000EF93FF939CB1E0918800EF5FEF718091B5
:100230008900E81731F0E0938800F0E0E657FF4FBF
:100240009083FF91EF919F918F910F900FBE0F9030
:100250001F9018950F931F93DF93CF93CDB7DEB701
:1002600061970FB6F894DEBF0FBECDBFAB018E0114
:100270000F5F1F4FB8010E942A04C8010E94C100ED
:1002800061960FB6F894DEBF0FBECDBFCF91DF9160
:100290001F910F91089580FF02C0DB9A01C0DB9887
:1002A00081FF02C0DC9A01C0DC9882FF02C0DD9AA7
:1002B00001C0DD9883FF02C0DE9A0895DE9808959C
:1002C00089B390E023E0969587952A95E1F78170B0
:1002D000CC998260CD998460CE99886008951F93EF
:1002E000D698D598D498D398D99ADA9A0E94600172
:1002F000182F1295107FDA98DA9A0E946001DA9826
:10030000812B1F910895D8980E946F0108951F9323
:10031000182FD69AD59AD49AD39AD998DA9A8295E0
:100320008F700E944B01DA98DA9A812F0E944B015C
:10033000DA980E94830187FDFCCF1F910895D89819
:100340000E9487010895D89A0E9487010895982FE6
:100350008058883008F49770892F0E94A30108956F
:10036000CF93DF93EC0102C00E94A70189918823FB
:10037000D9F7DF91CF910895CF93DF93EC0102C0BD
:100380000E94A701FE01219684918823C9F7DF917D
:10039000CF9108951F93CF93DF93EB0190E0877087
:1003A00090700896880F880F880F0E949F0110E0B8
:1003B00089910E94A3011F5F1830D1F7DF91CF917F
:1003C0001F9108950F931F93CF93DF938B0190E0BC
:1003D000877090700896880F880F880F0E949F0181
:1003E000C0E0D0E0F801EC0FFD1FE4918E2F0E94D9
:1003F000A3012196C830D105A9F7DF91CF911F91B4
:100400000F910895813009F480E46058860F0E94AE
:100410009F01089581E00E949F0108950F931F930B
:10042000D69AD59AD49AD39AD09AD29AD19AD89A5F
:10043000DA9AD99A80E395E70197F1F7DA98D89894
:10044000D998DA9A83E00E944B01DA9888E090E22A
:100450000197F1F7DA9A83E00E944B01DA9808ECF1
:1004600010E0C8010197F1F7DA9A83E00E944B018E
:10047000DA98C8010197F1F7DA9A82E00E944B01FD
:10048000DA98C8010197F1F788E20E949F0188E09D
:100490000E949F018CE00E949F0186E00E949F01C4
:1004A0000E940A021F910F9108950F931F93CF93FB
:1004B000DF938B0190E0877090700896880F880F0B
:1004C000880F0E949F01C0E0D0E0C8018C0F9D1FE3
:1004D0000E9480060E94A3012196C830D105A9F789
:1004E000DF91CF911F910F910895CF93DF93EC018E
:1004F00021960E948006982F81508E3F28F4892FE4
:100500000E94A701CE01F3CFDF91CF910895DF9331
:10051000CF93CDB7DEB761970FB6F894DEBF0FBEAD
:10052000CDBFAE014F5F5F4F20E130E00E944B0432
:100530000E94B00161960FB6F894DEBF0FBECDBF2A
:10054000CF91DF910895DF93CF93CDB7DEB7619759
:100550000FB6F894DEBF0FBECDBFBE016F5F7F4FF9
:100560004AE050E00E942A040E94B00161960FB652
:10057000F894DEBF0FBECDBFCF91DF910895BC01CF
:1005800080E49FE10E941604603130F0862F90E0F5
:10059000409795958795682F60B9089584EA86BF3E
:1005A00006B607FEFDCF089584E986BF06B604FCB3
:1005B000FDCF089583B984E886BF06B607FEFDCF58
:1005C00008958295880F880F807C846886BF06B660
:1005D00007FEFDCF83B10895982FF90184EA86BF05
:1005E00006B607FEFDCF93B984E886BF06B607FEC0
:1005F000FDCF63B984E886BF06B607FEFDCF09C00C
:10060000808183B996BF06B607FEFDCF3196415073
:1006100001C094E84423A1F784E986BF06B604FC30
:10062000FDCF0895982F84EA86BF06B607FEFDCF5A
:1006300093B984E886BF06B607FEFDCF63B984E8A8
:1006400086BF06B607FEFDCF43B984E886BF06B66F
:1006500007FEFDCF84E986BF06B604FCFDCF0895F2
:10066000982FF90184EA86BF06B607FEFDCF93B93D
:1006700084E886BF06B607FEFDCF63B984E886BF6F
:1006800006B607FEFDCF84EA86BF06B607FEFDCF9D
:100690009F5F93B984E886BF06B607FEFDCF12C000
:1006A000415080E090E011F081E090E036E0880F6A
:1006B000991F3A95E1F7846886BF06B607FEFDCF1D
:1006C00083B18193442361F784E986BF06B604FCB5
:1006D000FDCF0895982FFA0184EA86BF06B607FE7B
:1006E000FDCF93B984E886BF06B607FEFDCF63B998
:1006F00084E886BF06B607FEFDCF84EA86BF06B64D
:1007000007FEFDCF9F5F93B984E886BF06B607FE5C
:10071000FDCF84EC86BF06B607FEFDCF83B1808394
:1007200084E886BF06B607FEFDCF83B184E986BFA5
:1007300006B604FCFDCF08958F929F92AF92BF92B0
:10074000CF92DF92EF92FF920F931F93DF93CF939D
:10075000CDB7DEB7A4970FB6F894DEBF0FBECDBFFE
:10076000D79ADF9A8DE790E00E94BF020E945A005C
:1007700083E390E00E94980078944E010894811CD5
:10078000911C22E2A22EB12CAC0EBD1E8E010C5F7C
:100790001F4F90E6C92E90E0D92E88ECE82EF12C60
:1007A0000E9462006AA37BA38CA3D401F50183E0BD
:1007B00001900D928150E1F78DB79EB70A970FB661
:1007C000F8949EBF0FBE8DBFEDB7FEB73196ADB7A3
:1007D000BEB712961C930E931197D382C282898161
:1007E000992787FD9095958384838A81992787FD32
:1007F0009095978386838B81992787FD9095918724
:1008000080870E947F048DB79EB70A960FB6F89432
:100810009EBF0FBE8DBFC8010E94C10088EE93E04D
:10082000F7013197F1F70197D9F7BACFAA1BBB1B94
:1008300051E107C0AA1FBB1FA617B70710F0A61BE0
:10084000B70B881F991F5A95A9F780959095BC0101
:10085000CD010895FB019F01E8944230C4F0453278
:10086000B4F44A3029F497FB1EF4909581959F4F7C
:10087000642F77270E941604805D8A330CF0895D0F
:100880008193CB010097A1F716F45DE2519310829A
:10089000C9010C949E06FA01CF93FF93EF93223087
:1008A00044F1253234F5C22FE894CA3049F497FB5D
:1008B0003EF490958095709561957F4F8F4F9F4F37
:1008C0002C2F332744275527FF93EF930E94380797
:1008D000EF91FF91605D6A330CF0695D6193B9013E
:1008E000CA01605070408040904051F716F4CDE24C
:1008F000C19310828F919F91CF910C949E06AEE090
:10090000B0E0E5E8F4E00C9468070D891E8986E004
:100910008C831A8309838FEF9FE79E838D839E01CB
:10092000275E3F4FCE0101966F89788DA9010E9405
:10093000A3042F813885020F131FF80110822E9611
:10094000E4E00C948407ABE0B0E0E9EAF4E00C9456
:100950005A073C012B015A01FC0117821682838140
:1009600081FD03C06FEF7FEFC6C19AE0892E1E01A3
:100970000894211C311CF3012381F20123FD859190
:1009800023FF81912F01882309F4B2C1853239F404
:1009900023FD859123FF81912F01853229F490E079
:1009A000B3010E94AE06E7CF982FFF24EE249924CE
:1009B000FFE1FF15D0F09B3269F09C3228F49032B1
:1009C00059F0933291F40EC09D3249F0903369F49E
:1009D00041E024C052E0F52A84E0F82A28C098E0DB
:1009E000F92A25C0E0E1FE2A22C0F7FC29C0892FA0
:1009F00080538A3070F4F6FE05C0989C902C112428
:100A0000980E15C0E89CE02C1124E80EF0E2FF2AB5
:100A10000EC09E3229F4F6FC6BC140E4F42A07C0F4
:100A20009C3619F450E8F52A02C0983649F4F201D0
:100A300023FD959123FF91912F01992309F0B8CFC0
:100A4000892F8554833018F08052833038F444E085
:100A500050E0A40EB51E5FE359830FC0933631F00A
:100A6000933779F0933509F056C020C0F5018081A5
:100A7000898342E050E0A40EB51E610101E010E060
:100A800012C0F501C080D180F6FC03C06FEF7FEF8C
:100A900002C0692D70E042E050E0A40EB51EC60110
:100AA0000E9493068C015FE7F52214C0F501C08017
:100AB000D180F6FC03C06FEF7FEF02C0692D70E0BC
:100AC00042E050E0A40EB51EC6010E9488068C01CB
:100AD00050E8F52AF3FE07C01AC080E290E0B301A7
:100AE0000E94AE06EA948E2D90E008171907A8F32D
:100AF0000EC0F601F7FC8591F7FE81916F0190E041
:100B0000B3010E94AE06E110EA94015010400115B5
:100B1000110579F7EAC0943611F0993669F5F7FEB8
:100B200008C0F501208131814281538184E090E049
:100B30000AC0F501808191819C01442737FD4095D1
:100B4000542F82E090E0A80EB91E9FE6F92257FFCD
:100B500009C050954095309521953F4F4F4F5F4FBD
:100B6000E0E8FE2ACA01B901A1012AE030E00E94B2
:100B7000DA06D82ED21840C0953729F41F2D1F7ED3
:100B80002AE030E01DC01F2D197F9F3661F090379D
:100B900020F4983509F0ACC00FC0903739F0983781
:100BA00009F0A6C004C028E030E00AC0106114FDBE
:100BB000146020E130E004C014FD166020E132E052
:100BC00017FF08C0F501608171818281938144E043
:100BD00050E008C0F50180819181BC0180E090E087
:100BE00042E050E0A40EB51EA1010E94DA06D82E04
:100BF000D2188FE7F82EF122F6FE0BC05EEFF52239
:100C0000D91438F4F4FE07C0F2FC05C08FEEF822C8
:100C100002C01D2D01C0192DF4FE0DC0FE01ED0D09
:100C2000F11D8081803319F499EEF92208C01F5F0D
:100C3000F2FE05C003C08F2D867809F01F5F0F2DCF
:100C4000F3FC14C0F0FE0FC01E1510F09D2C0BC05D
:100C50009D2C9E0C911A1E2D06C080E290E0B301DF
:100C60000E94AE061F5F1E15C0F304C01E1510F4CF
:100C7000E11A01C0EE2404FF0FC080E390E0B3014D
:100C80000E94AE0602FF1DC001FD03C088E790E090
:100C90000EC088E590E00BC0802F867891F001FFB0
:100CA00002C08BE201C080E2F7FC8DE290E0B3016C
:100CB0000E94AE0606C080E390E0B3010E94AE063B
:100CC0009A94D914C0F3DA94F101ED0DF11D8081ED
:100CD00090E0B3010E94AE06DD20A9F706C080E2D5
:100CE00090E0B3010E94AE06EA94EE20C1F743CE35
:100CF000F30166817781CB012B96E2E10C947607B4
:100D0000E199FECF9FBB8EBBE09A99278DB30895E2
:100D1000FC010590615070400110D8F780959095C6
:100D20008E0F9F1F0895FC016150704001900110CB
:100D3000D8F7809590958E0F9F1F0895DC01FC01D8
:100D4000672F71917723E1F7329704C07C916D93FF
:100D500070836291AE17BF07C8F308950F931F9376
:100D6000CF93DF938C01EB018B8181FF1BC082FF4E
:100D70000DC02E813F818C819D812817390764F435
:100D8000E881F9810193F983E88306C0E885F98554
:100D9000802F0995892B31F48E819F8101969F8345
:100DA0008E8302C00FEF1FEFC801DF91CF911F911B
:100DB0000F910895FA01AA27283051F1203181F1CD
:100DC000E8946F936E7F6E5F7F4F8F4F9F4FAF4F53
:100DD000B1E03ED0B4E03CD0670F781F891F9A1F66
:100DE000A11D680F791F8A1F911DA11D6A0F711D1A
:100DF000811D911DA11D20D009F468943F912AE026
:100E0000269F11243019305D3193DEF6CF0108950D
:100E1000462F4770405D4193B3E00FD0C9F7F6CF3E
:100E2000462F4F70405D4A3318F0495D31FD405206
:100E3000419302D0A9F7EACFB4E0A695979587959C
:100E400077956795BA95C9F700976105710508957B
:100E50009B01AC010A2E0694579547953795279527
:100E6000BA95C9F7620F731F841F951FA01D0895BF
:100E7000A1E21A2EAA1BBB1BFD010DC0AA1FBB1F9E
:100E8000EE1FFF1FA217B307E407F50720F0A21B10
:100E9000B30BE40BF50B661F771F881F991F1A947D
:100EA00069F760957095809590959B01AC01BD01A7
:100EB000CF0108952F923F924F925F926F927F924F
:100EC0008F929F92AF92BF92CF92DF92EF92FF925A
:100ED0000F931F93CF93DF93CDB7DEB7CA1BDB0B06
:100EE0000FB6F894DEBF0FBECDBF09942A883988AB
:100EF00048885F846E847D848C849B84AA84B984B2
:100F0000C884DF80EE80FD800C811B81AA81B981BD
:100F1000CE0FD11D0FB6F894DEBF0FBECDBFED01D1
:060F20000895F894FFCFD4
:100F2600583A25346420593A253464205A3A2534EF
:060F360064200D0A00001A
:00000001FF
